:1000000045C0000060C000005EC000005CC0000091
:100010005AC0000058C0000056C0000054C0000084
:1000200052C0000050C000004EC000004CC0000094
:100030004AC000007EC0000046C0000044C000006E
:1000400042C0000040C000003EC000003CC00000B4
:100050003AC0000038C0000036C0000034C00000C4
:1000600032C0000030C000002EC000002CC00000D4
:100070002AC0000028C0000026C0000024C00000E4
:1000800022C0000020C000001EC0000011241FBEBE
:10009000CFEFD0E4DEBFCDBF11E0A0E0B1E0E0EAF9
:1000A000F2E000E00BBF02C007900D92A430B10750
:1000B000D9F721E0A4E0B1E001C01D92AE30B20753
:1000C000E1F7D3D0EBC09CCF6093000170930101A6
:1000D00080930201909303016093040170930501E2
:1000E000809306019093070108958BE0809381002F
:1000F0008DE790E0909389008093880082E0809360
:100100006F00109285001092840080910001909100
:100110000101A0910201B091030180930401909329
:100120000501A0930601B09307018FB780688FBFC8
:1001300008951F920F920FB60F9211248F939F93E1
:10014000AF93BF938091040190910501A0910601A6
:10015000B09107010197A109B1098093040190931F
:100160000501A0930601B0930701892B8A2B8B2BE5
:1001700099F481E080930801809100019091010140
:10018000A0910201B09103018093040190930501B5
:10019000A0930601B0930701BF91AF919F918F91FA
:1001A0000F900FBE0F901F90189580910B0181301A
:1001B00051F028F0823059F0833069F010C081E0AE
:1001C00080930B0117C082E080930B0117C083E07E
:1001D00080930B0117C081E080930B010BC081302D
:1001E00049F028F0823051F0833079F40BC010923E
:1001F0000C01089581E080930C01089582E08093C2
:100200000C01089584E080930C01089580910A0107
:10021000813041F018F0823049F00CC081E08093C9
:100220000A0111C082E080930A0111C081E080932D
:100230000A0109C0813039F018F0823051F407C04A
:1002400010920901089588E08093090108951092A1
:100250000901089580910D01811106C090910C0152
:1002600080910901892B85B908958FEF84B915B85C
:1002700068EE73E080E090E027DF37DF10920B013B
:1002800010920A0110920D0190DFC0DFE3DF809130
:1002900008018823E1F310920801F6CFF894FFCF0C
:0402A0000100000059
:00000001FF
